{
  "contractName": "StudentLoanPlatform",
  "abi": [
    {
      "inputs": [
        {
          "internalType": "address",
          "name": "_token",
          "type": "address"
        }
      ],
      "stateMutability": "nonpayable",
      "type": "constructor"
    },
    {
      "anonymous": false,
      "inputs": [
        {
          "indexed": true,
          "internalType": "uint256",
          "name": "loanId",
          "type": "uint256"
        },
        {
          "indexed": true,
          "internalType": "address",
          "name": "borrower",
          "type": "address"
        },
        {
          "indexed": false,
          "internalType": "uint256",
          "name": "amount",
          "type": "uint256"
        }
      ],
      "name": "LoanCreated",
      "type": "event"
    },
    {
      "anonymous": false,
      "inputs": [
        {
          "indexed": true,
          "internalType": "uint256",
          "name": "loanId",
          "type": "uint256"
        },
        {
          "indexed": true,
          "internalType": "address",
          "name": "borrower",
          "type": "address"
        }
      ],
      "name": "LoanRepaid",
      "type": "event"
    },
    {
      "anonymous": false,
      "inputs": [
        {
          "indexed": true,
          "internalType": "address",
          "name": "previousOwner",
          "type": "address"
        },
        {
          "indexed": true,
          "internalType": "address",
          "name": "newOwner",
          "type": "address"
        }
      ],
      "name": "OwnershipTransferred",
      "type": "event"
    },
    {
      "anonymous": false,
      "inputs": [
        {
          "indexed": false,
          "internalType": "uint256",
          "name": "minLoanAmount",
          "type": "uint256"
        },
        {
          "indexed": false,
          "internalType": "uint256",
          "name": "maxLoanAmount",
          "type": "uint256"
        },
        {
          "indexed": false,
          "internalType": "uint256",
          "name": "minInterestRate",
          "type": "uint256"
        },
        {
          "indexed": false,
          "internalType": "uint256",
          "name": "maxInterestRate",
          "type": "uint256"
        },
        {
          "indexed": false,
          "internalType": "uint256",
          "name": "minDuration",
          "type": "uint256"
        },
        {
          "indexed": false,
          "internalType": "uint256",
          "name": "maxDuration",
          "type": "uint256"
        }
      ],
      "name": "PlatformParametersUpdated",
      "type": "event"
    },
    {
      "inputs": [],
      "name": "loanCount",
      "outputs": [
        {
          "internalType": "uint256",
          "name": "",
          "type": "uint256"
        }
      ],
      "stateMutability": "view",
      "type": "function"
    },
    {
      "inputs": [
        {
          "internalType": "uint256",
          "name": "",
          "type": "uint256"
        }
      ],
      "name": "loans",
      "outputs": [
        {
          "internalType": "uint256",
          "name": "amount",
          "type": "uint256"
        },
        {
          "internalType": "uint256",
          "name": "interest",
          "type": "uint256"
        },
        {
          "internalType": "uint256",
          "name": "duration",
          "type": "uint256"
        },
        {
          "internalType": "uint256",
          "name": "startTime",
          "type": "uint256"
        },
        {
          "internalType": "address",
          "name": "borrower",
          "type": "address"
        },
        {
          "internalType": "bool",
          "name": "isActive",
          "type": "bool"
        }
      ],
      "stateMutability": "view",
      "type": "function"
    },
    {
      "inputs": [],
      "name": "maxDuration",
      "outputs": [
        {
          "internalType": "uint256",
          "name": "",
          "type": "uint256"
        }
      ],
      "stateMutability": "view",
      "type": "function"
    },
    {
      "inputs": [],
      "name": "maxInterestRate",
      "outputs": [
        {
          "internalType": "uint256",
          "name": "",
          "type": "uint256"
        }
      ],
      "stateMutability": "view",
      "type": "function"
    },
    {
      "inputs": [],
      "name": "maxLoanAmount",
      "outputs": [
        {
          "internalType": "uint256",
          "name": "",
          "type": "uint256"
        }
      ],
      "stateMutability": "view",
      "type": "function"
    },
    {
      "inputs": [],
      "name": "minDuration",
      "outputs": [
        {
          "internalType": "uint256",
          "name": "",
          "type": "uint256"
        }
      ],
      "stateMutability": "view",
      "type": "function"
    },
    {
      "inputs": [],
      "name": "minInterestRate",
      "outputs": [
        {
          "internalType": "uint256",
          "name": "",
          "type": "uint256"
        }
      ],
      "stateMutability": "view",
      "type": "function"
    },
    {
      "inputs": [],
      "name": "minLoanAmount",
      "outputs": [
        {
          "internalType": "uint256",
          "name": "",
          "type": "uint256"
        }
      ],
      "stateMutability": "view",
      "type": "function"
    },
    {
      "inputs": [],
      "name": "owner",
      "outputs": [
        {
          "internalType": "address",
          "name": "",
          "type": "address"
        }
      ],
      "stateMutability": "view",
      "type": "function"
    },
    {
      "inputs": [],
      "name": "renounceOwnership",
      "outputs": [],
      "stateMutability": "nonpayable",
      "type": "function"
    },
    {
      "inputs": [],
      "name": "token",
      "outputs": [
        {
          "internalType": "contract IERC20",
          "name": "",
          "type": "address"
        }
      ],
      "stateMutability": "view",
      "type": "function"
    },
    {
      "inputs": [
        {
          "internalType": "address",
          "name": "newOwner",
          "type": "address"
        }
      ],
      "name": "transferOwnership",
      "outputs": [],
      "stateMutability": "nonpayable",
      "type": "function"
    },
    {
      "inputs": [
        {
          "internalType": "uint256",
          "name": "_amount",
          "type": "uint256"
        },
        {
          "internalType": "uint256",
          "name": "_interest",
          "type": "uint256"
        },
        {
          "internalType": "uint256",
          "name": "_duration",
          "type": "uint256"
        }
      ],
      "name": "createLoan",
      "outputs": [],
      "stateMutability": "nonpayable",
      "type": "function"
    },
    {
      "inputs": [
        {
          "internalType": "uint256",
          "name": "_loanId",
          "type": "uint256"
        }
      ],
      "name": "repayLoan",
      "outputs": [],
      "stateMutability": "nonpayable",
      "type": "function"
    },
    {
      "inputs": [
        {
          "internalType": "uint256",
          "name": "_loanId",
          "type": "uint256"
        }
      ],
      "name": "calculateRepaymentAmount",
      "outputs": [
        {
          "internalType": "uint256",
          "name": "",
          "type": "uint256"
        }
      ],
      "stateMutability": "view",
      "type": "function"
    },
    {
      "inputs": [
        {
          "internalType": "uint256",
          "name": "_loanId",
          "type": "uint256"
        }
      ],
      "name": "getLoanDetails",
      "outputs": [
        {
          "components": [
            {
              "internalType": "uint256",
              "name": "amount",
              "type": "uint256"
            },
            {
              "internalType": "uint256",
              "name": "interest",
              "type": "uint256"
            },
            {
              "internalType": "uint256",
              "name": "duration",
              "type": "uint256"
            },
            {
              "internalType": "uint256",
              "name": "startTime",
              "type": "uint256"
            },
            {
              "internalType": "address",
              "name": "borrower",
              "type": "address"
            },
            {
              "internalType": "bool",
              "name": "isActive",
              "type": "bool"
            }
          ],
          "internalType": "struct StudentLoanPlatform.Loan",
          "name": "",
          "type": "tuple"
        }
      ],
      "stateMutability": "view",
      "type": "function"
    },
    {
      "inputs": [],
      "name": "getMyLoans",
      "outputs": [
        {
          "internalType": "uint256[]",
          "name": "",
          "type": "uint256[]"
        }
      ],
      "stateMutability": "view",
      "type": "function"
    },
    {
      "inputs": [],
      "name": "getAllActiveLoans",
      "outputs": [
        {
          "internalType": "uint256[]",
          "name": "",
          "type": "uint256[]"
        }
      ],
      "stateMutability": "view",
      "type": "function"
    },
    {
      "inputs": [
        {
          "internalType": "uint256",
          "name": "_minLoanAmount",
          "type": "uint256"
        },
        {
          "internalType": "uint256",
          "name": "_maxLoanAmount",
          "type": "uint256"
        },
        {
          "internalType": "uint256",
          "name": "_minInterestRate",
          "type": "uint256"
        },
        {
          "internalType": "uint256",
          "name": "_maxInterestRate",
          "type": "uint256"
        },
        {
          "internalType": "uint256",
          "name": "_minDuration",
          "type": "uint256"
        },
        {
          "internalType": "uint256",
          "name": "_maxDuration",
          "type": "uint256"
        }
      ],
      "name": "updatePlatformParameters",
      "outputs": [],
      "stateMutability": "nonpayable",
      "type": "function"
    }
  ],
  "bytecode": "0x608060405234801561001057600080fd5b50604051610f7e380380610f7e83398101604081905261002f916100e8565b600160005561003d33610096565b600280546001600160a01b0319166001600160a01b039290921691909117905568056bc75e2d6310000060055569021e19e0c9bab24000006006556001600755601460085562278d006009556301e13380600a55610118565b600180546001600160a01b038381166001600160a01b0319831681179093556040519116919082907f8be0079c531659141344cd1fd0a4f28419497f9722a3daafe3b4186f6b6457e090600090a35050565b6000602082840312156100fa57600080fd5b81516001600160a01b038116811461011157600080fd5b9392505050565b610e57806101276000396000f3fe608060405234801561001057600080fd5b50600436106101215760003560e01c8063b1197239116100ad578063e06a913811610071578063e06a913814610263578063e1ec3c681461026c578063eb994db1146102f7578063f2fde38b14610300578063fc0c546a1461031357600080fd5b8063b119723914610217578063b56493e21461022a578063c3254d971461023d578063ce63094d14610252578063da7a45761461025b57600080fd5b806372f94365116100f457806372f94365146101ba5780638da5cb5b146101c3578063904b513b146101e8578063a9583d5f146101fb578063ab7b1c891461020457600080fd5b8063567157611461012657806366877b8d146101425780636db5c8fd146101a7578063715018a6146101b0575b600080fd5b61012f60095481565b6040519081526020015b60405180910390f35b610155610150366004610c56565b610326565b6040516101399190815181526020808301519082015260408083015190820152606080830151908201526080808301516001600160a01b03169082015260a09182015115159181019190915260c00190565b61012f600a5481565b6101b86103d3565b005b61012f60065481565b6001546001600160a01b03165b6040516001600160a01b039091168152602001610139565b6101b86101f6366004610c6f565b6103e7565b61012f60085481565b6101b8610212366004610c56565b6106b1565b61012f610225366004610c56565b610883565b6101b8610238366004610c9b565b6108dd565b610245610961565b6040516101399190610cde565b61012f60045481565b610245610a23565b61012f60055481565b6102bf61027a366004610c56565b6003602081905260009182526040909120805460018201546002830154938301546004909301549193909290916001600160a01b03811690600160a01b900460ff1686565b6040805196875260208701959095529385019290925260608401526001600160a01b03166080830152151560a082015260c001610139565b61012f60075481565b6101b861030e366004610d22565b610adb565b6002546101d0906001600160a01b031681565b61036a6040518060c001604052806000815260200160008152602001600081526020016000815260200160006001600160a01b031681526020016000151581525090565b50600090815260036020818152604092839020835160c081018552815481526001820154928101929092526002810154938201939093529082015460608201526004909101546001600160a01b0381166080830152600160a01b900460ff16151560a082015290565b6103db610b51565b6103e56000610bab565b565b6103ef610bfd565b600554831015801561040357506006548311155b6104545760405162461bcd60e51b815260206004820152601860248201527f4c6f616e20616d6f756e74206f7574206f662072616e6765000000000000000060448201526064015b60405180910390fd5b600754821015801561046857506008548211155b6104b45760405162461bcd60e51b815260206004820152601a60248201527f496e7465726573742072617465206f7574206f662072616e6765000000000000604482015260640161044b565b60095481101580156104c85750600a548111155b61050c5760405162461bcd60e51b81526020600482015260156024820152744475726174696f6e206f7574206f662072616e676560581b604482015260640161044b565b6004805490600061051c83610d68565b90915550506040805160c081018252848152602080820185815282840185815242606085019081523360808601818152600160a088018181526004805460009081526003998a90528b902099518a5596519189019190915593516002808901919091559251958701959095559351948301805492511515600160a01b026001600160a81b03199093166001600160a01b0396871617929092179091555493516323b872dd60e01b815230918101919091526024810191909152604481018690529116906323b872dd906064016020604051808303816000875af1158015610607573d6000803e3d6000fd5b505050506040513d601f19601f8201168201806040525081019061062b9190610d81565b6106695760405162461bcd60e51b815260206004820152600f60248201526e151c985b9cd9995c8819985a5b1959608a1b604482015260640161044b565b6004546040518481523391907f8910ba13a55695f056e224bbbc6b65d866b12a8c2fbdf387fb853a1cca298cd79060200160405180910390a36106ac6001600055565b505050565b6106b9610bfd565b60008181526003602052604090206004810154600160a01b900460ff166107175760405162461bcd60e51b81526020600482015260126024820152714c6f616e206973206e6f742061637469766560701b604482015260640161044b565b60048101546001600160a01b031633146107735760405162461bcd60e51b815260206004820152601760248201527f4f6e6c7920626f72726f7765722063616e207265706179000000000000000000604482015260640161044b565b600061077e83610883565b6002546040516323b872dd60e01b8152336004820152306024820152604481018390529192506001600160a01b0316906323b872dd906064016020604051808303816000875af11580156107d6573d6000803e3d6000fd5b505050506040513d601f19601f820116820180604052508101906107fa9190610d81565b6108385760405162461bcd60e51b815260206004820152600f60248201526e151c985b9cd9995c8819985a5b1959608a1b604482015260640161044b565b60048201805460ff60a01b19169055604051339084907fe69d7686a8bc68278b8c5419579f91716b3ef2ac2fac0d8cf80b8011f8f458a490600090a350506108806001600055565b50565b6000818152600360205260408120600281015460018201548254849263bbf81e009290916108b19190610da3565b6108bb9190610da3565b6108c59190610dc0565b82549091506108d5908290610de2565b949350505050565b6108e5610b51565b60058690556006859055600784905560088390556009829055600a8190556040805187815260208101879052908101859052606081018490526080810183905260a081018290527f4f487abb6a1360d2db6517098463aa089227551a1ee577b9087b4fe8cba2cedf9060c00160405180910390a1505050505050565b6060600060045467ffffffffffffffff81111561098057610980610df5565b6040519080825280602002602001820160405280156109a9578160200160208202803683370190505b509050600060015b6004548111610a1b57600081815260036020526040902060040154336001600160a01b0390911603610a0957808383815181106109f0576109f0610e0b565b602090810291909101015281610a0581610d68565b9250505b80610a1381610d68565b9150506109b1565b508152919050565b6060600060045467ffffffffffffffff811115610a4257610a42610df5565b604051908082528060200260200182016040528015610a6b578160200160208202803683370190505b509050600060015b6004548111610a1b57600081815260036020526040902060040154600160a01b900460ff1615610ac95780838381518110610ab057610ab0610e0b565b602090810291909101015281610ac581610d68565b9250505b80610ad381610d68565b915050610a73565b610ae3610b51565b6001600160a01b038116610b485760405162461bcd60e51b815260206004820152602660248201527f4f776e61626c653a206e6577206f776e657220697320746865207a65726f206160448201526564647265737360d01b606482015260840161044b565b61088081610bab565b6001546001600160a01b031633146103e55760405162461bcd60e51b815260206004820181905260248201527f4f776e61626c653a2063616c6c6572206973206e6f7420746865206f776e6572604482015260640161044b565b600180546001600160a01b038381166001600160a01b0319831681179093556040519116919082907f8be0079c531659141344cd1fd0a4f28419497f9722a3daafe3b4186f6b6457e090600090a35050565b600260005403610c4f5760405162461bcd60e51b815260206004820152601f60248201527f5265656e7472616e637947756172643a207265656e7472616e742063616c6c00604482015260640161044b565b6002600055565b600060208284031215610c6857600080fd5b5035919050565b600080600060608486031215610c8457600080fd5b505081359360208301359350604090920135919050565b60008060008060008060c08789031215610cb457600080fd5b505084359660208601359650604086013595606081013595506080810135945060a0013592509050565b6020808252825182820181905260009190848201906040850190845b81811015610d1657835183529284019291840191600101610cfa565b50909695505050505050565b600060208284031215610d3457600080fd5b81356001600160a01b0381168114610d4b57600080fd5b9392505050565b634e487b7160e01b600052601160045260246000fd5b600060018201610d7a57610d7a610d52565b5060010190565b600060208284031215610d9357600080fd5b81518015158114610d4b57600080fd5b8082028115828204841417610dba57610dba610d52565b92915050565b600082610ddd57634e487b7160e01b600052601260045260246000fd5b500490565b80820180821115610dba57610dba610d52565b634e487b7160e01b600052604160045260246000fd5b634e487b7160e01b600052603260045260246000fdfea264697066735822122052ad47bc4ec99307d6683c4f411461daaa9d4de94468915a746bb7fd5e672de164736f6c63430008130033",
  "immutableReferences": {},
  "source": "// SPDX-License-Identifier: MIT\r\npragma solidity ^0.8.19;\r\n\r\nimport \"@openzeppelin/contracts/token/ERC20/IERC20.sol\";\r\nimport \"@openzeppelin/contracts/security/ReentrancyGuard.sol\";\r\nimport \"@openzeppelin/contracts/access/Ownable.sol\";\r\n\r\ncontract StudentLoanPlatform is ReentrancyGuard, Ownable {\r\n    struct Loan {\r\n        uint256 amount;\r\n        uint256 interest;\r\n        uint256 duration;\r\n        uint256 startTime;\r\n        address borrower;\r\n        bool isActive;\r\n    }\r\n\r\n    IERC20 public token;\r\n    mapping(uint256 => Loan) public loans;\r\n    uint256 public loanCount;\r\n    uint256 public minLoanAmount;\r\n    uint256 public maxLoanAmount;\r\n    uint256 public minInterestRate;\r\n    uint256 public maxInterestRate;\r\n    uint256 public minDuration;\r\n    uint256 public maxDuration;\r\n\r\n    event LoanCreated(uint256 indexed loanId, address indexed borrower, uint256 amount);\r\n    event LoanRepaid(uint256 indexed loanId, address indexed borrower);\r\n    event PlatformParametersUpdated(uint256 minLoanAmount, uint256 maxLoanAmount, uint256 minInterestRate, uint256 maxInterestRate, uint256 minDuration, uint256 maxDuration);\r\n\r\n    constructor(address _token) {\r\n        token = IERC20(_token);\r\n        minLoanAmount = 100 * 10**18; // 100 tokens\r\n        maxLoanAmount = 10000 * 10**18; // 10,000 tokens\r\n        minInterestRate = 1; // 1%\r\n        maxInterestRate = 20; // 20%\r\n        minDuration = 30 days;\r\n        maxDuration = 365 days;\r\n    }\r\n\r\n    function createLoan(uint256 _amount, uint256 _interest, uint256 _duration) external nonReentrant {\r\n        require(_amount >= minLoanAmount && _amount <= maxLoanAmount, \"Loan amount out of range\");\r\n        require(_interest >= minInterestRate && _interest <= maxInterestRate, \"Interest rate out of range\");\r\n        require(_duration >= minDuration && _duration <= maxDuration, \"Duration out of range\");\r\n\r\n        loanCount++;\r\n        loans[loanCount] = Loan({\r\n            amount: _amount,\r\n            interest: _interest,\r\n            duration: _duration,\r\n            startTime: block.timestamp,\r\n            borrower: msg.sender,\r\n            isActive: true\r\n        });\r\n\r\n        require(token.transferFrom(address(this), msg.sender, _amount), \"Transfer failed\");\r\n\r\n        emit LoanCreated(loanCount, msg.sender, _amount);\r\n    }\r\n\r\n    function repayLoan(uint256 _loanId) external nonReentrant {\r\n        Loan storage loan = loans[_loanId];\r\n        require(loan.isActive, \"Loan is not active\");\r\n        require(loan.borrower == msg.sender, \"Only borrower can repay\");\r\n\r\n        uint256 repaymentAmount = calculateRepaymentAmount(_loanId);\r\n        require(token.transferFrom(msg.sender, address(this), repaymentAmount), \"Transfer failed\");\r\n\r\n        loan.isActive = false;\r\n\r\n        emit LoanRepaid(_loanId, msg.sender);\r\n    }\r\n\r\n    function calculateRepaymentAmount(uint256 _loanId) public view returns (uint256) {\r\n        Loan storage loan = loans[_loanId];\r\n        uint256 interest = (loan.amount * loan.interest * loan.duration) / (365 days * 100);\r\n        return loan.amount + interest;\r\n    }\r\n\r\n    function getLoanDetails(uint256 _loanId) external view returns (Loan memory) {\r\n        return loans[_loanId];\r\n    }\r\n\r\n    function getMyLoans() external view returns (uint256[] memory) {\r\n        uint256[] memory myLoanIds = new uint256[](loanCount);\r\n        uint256 count = 0;\r\n        for (uint256 i = 1; i <= loanCount; i++) {\r\n            if (loans[i].borrower == msg.sender) {\r\n                myLoanIds[count] = i;\r\n                count++;\r\n            }\r\n        }\r\n        // Resize the array to remove empty elements\r\n        assembly { mstore(myLoanIds, count) }\r\n        return myLoanIds;\r\n    }\r\n\r\n    function getAllActiveLoans() external view returns (uint256[] memory) {\r\n        uint256[] memory activeLoanIds = new uint256[](loanCount);\r\n        uint256 count = 0;\r\n        for (uint256 i = 1; i <= loanCount; i++) {\r\n            if (loans[i].isActive) {\r\n                activeLoanIds[count] = i;\r\n                count++;\r\n            }\r\n        }\r\n        // Resize the array to remove empty elements\r\n        assembly { mstore(activeLoanIds, count) }\r\n        return activeLoanIds;\r\n    }\r\n\r\n    function updatePlatformParameters(\r\n        uint256 _minLoanAmount,\r\n        uint256 _maxLoanAmount,\r\n        uint256 _minInterestRate,\r\n        uint256 _maxInterestRate,\r\n        uint256 _minDuration,\r\n        uint256 _maxDuration\r\n    ) external onlyOwner {\r\n        minLoanAmount = _minLoanAmount;\r\n        maxLoanAmount = _maxLoanAmount;\r\n        minInterestRate = _minInterestRate;\r\n        maxInterestRate = _maxInterestRate;\r\n        minDuration = _minDuration;\r\n        maxDuration = _maxDuration;\r\n\r\n        emit PlatformParametersUpdated(_minLoanAmount, _maxLoanAmount, _minInterestRate, _maxInterestRate, _minDuration, _maxDuration);\r\n    }\r\n}",
  "sourcePath": "C:\\Users\\offic\\OneDrive\\zs associates\\educhain-student-loans\\contracts\\StudentLoanPlatform.sol",
  "compiler": {
    "name": "solc",
    "version": "0.8.19+commit.7dd6d404.Emscripten.clang"
  },
  "schemaVersion": "3.4.16",
  "updatedAt": "2024-08-26T16:27:10.462Z",
  "devdoc": {
    "kind": "dev",
    "methods": {
      "owner()": {
        "details": "Returns the address of the current owner."
      },
      "renounceOwnership()": {
        "details": "Leaves the contract without owner. It will not be possible to call `onlyOwner` functions. Can only be called by the current owner. NOTE: Renouncing ownership will leave the contract without an owner, thereby disabling any functionality that is only available to the owner."
      },
      "transferOwnership(address)": {
        "details": "Transfers ownership of the contract to a new account (`newOwner`). Can only be called by the current owner."
      }
    },
    "version": 1
  },
  "userdoc": {
    "kind": "user",
    "methods": {},
    "version": 1
  }
}